{
  "contractName": "Balance",
  "abi": [
    {
      "constant": true,
      "inputs": [],
      "name": "balance",
      "outputs": [
        {
          "internalType": "uint256",
          "name": "",
          "type": "uint256"
        }
      ],
      "payable": false,
      "stateMutability": "view",
      "type": "function"
    },
    {
      "constant": false,
      "inputs": [
        {
          "internalType": "uint256",
          "name": "bal",
          "type": "uint256"
        }
      ],
      "name": "setBalance",
      "outputs": [
        {
          "internalType": "uint256",
          "name": "",
          "type": "uint256"
        }
      ],
      "payable": false,
      "stateMutability": "nonpayable",
      "type": "function"
    },
    {
      "constant": true,
      "inputs": [],
      "name": "getBalance",
      "outputs": [
        {
          "internalType": "uint256",
          "name": "",
          "type": "uint256"
        }
      ],
      "payable": false,
      "stateMutability": "view",
      "type": "function"
    },
    {
      "constant": false,
      "inputs": [
        {
          "internalType": "uint256",
          "name": "amount",
          "type": "uint256"
        }
      ],
      "name": "setDeposit",
      "outputs": [
        {
          "internalType": "uint256",
          "name": "",
          "type": "uint256"
        }
      ],
      "payable": false,
      "stateMutability": "nonpayable",
      "type": "function"
    },
    {
      "constant": false,
      "inputs": [
        {
          "internalType": "uint256",
          "name": "amount",
          "type": "uint256"
        }
      ],
      "name": "setWithdraw",
      "outputs": [
        {
          "internalType": "uint256",
          "name": "",
          "type": "uint256"
        }
      ],
      "payable": false,
      "stateMutability": "nonpayable",
      "type": "function"
    }
  ],
  "bytecode": "0x60806040526101b860005534801561001657600080fd5b506101e3806100266000396000f3fe608060405234801561001057600080fd5b50600436106100575760003560e01c806312065fe01461005c578063a610179a1461007a578063b69ef8a8146100bc578063f5bade66146100da578063fb1669ca1461011c575b600080fd5b61006461015e565b6040518082815260200191505060405180910390f35b6100a66004803603602081101561009057600080fd5b8101908080359060200190929190505050610167565b6040518082815260200191505060405180910390f35b6100c461017e565b6040518082815260200191505060405180910390f35b610106600480360360208110156100f057600080fd5b8101908080359060200190929190505050610184565b6040518082815260200191505060405180910390f35b6101486004803603602081101561013257600080fd5b810190808035906020019092919050505061019b565b6040518082815260200191505060405180910390f35b60008054905090565b600081600080828254039250508190559050919050565b60005481565b600081600080828254019250508190559050919050565b600081600081905550600054905091905056fea265627a7a723158200ddbe4d59be61413f745e4c3d64c5ce2fc1f9f5d2aeb44f92c174b96cd8c244864736f6c63430005100032",
  "source": "// SPDX-License-Identifier: MIT\npragma solidity >=0.4.22 <0.9.0;\n\ncontract Balance {\n    uint public balance = 440 ;\n\n    function setBalance(uint bal) public returns(uint){\n        balance = bal;\n        return balance;\n    }\n\n    function getBalance() public view returns(uint){\n        return balance ;\n    }\n\n    function setDeposit(uint amount) public returns(uint){\n        return balance+= amount ;\n    }\n\n    function setWithdraw(uint amount) public returns(uint){\n        return balance-= amount;\n    }\n}",
  "sourcePath": "/Users/akshaymaru/Desktop/ethereum-test/contracts/Balance.sol",
  "compiler": {
    "name": "solc",
    "version": "0.5.16+commit.9c3226ce.Emscripten.clang"
  },
  "schemaVersion": "3.4.3",
  "updatedAt": "2021-08-21T07:05:42.038Z",
  "devdoc": {
    "methods": {}
  },
  "userdoc": {
    "methods": {}
  }
}